{
  "_format": "hh-sol-artifact-1",
  "contractName": "ProjectRegistry",
  "sourceName": "contracts/ProjectRegistry.sol",
  "abi": [
    {
      "inputs": [],
      "stateMutability": "nonpayable",
      "type": "constructor"
    },
    {
      "inputs": [],
      "name": "AccessControlBadConfirmation",
      "type": "error"
    },
    {
      "inputs": [
        {
          "internalType": "address",
          "name": "account",
          "type": "address"
        },
        {
          "internalType": "bytes32",
          "name": "neededRole",
          "type": "bytes32"
        }
      ],
      "name": "AccessControlUnauthorizedAccount",
      "type": "error"
    },
    {
      "anonymous": false,
      "inputs": [
        {
          "indexed": true,
          "internalType": "string",
          "name": "projectId",
          "type": "string"
        },
        {
          "indexed": false,
          "internalType": "uint256",
          "name": "amount",
          "type": "uint256"
        }
      ],
      "name": "CarbonCreditsEstimated",
      "type": "event"
    },
    {
      "anonymous": false,
      "inputs": [
        {
          "indexed": true,
          "internalType": "string",
          "name": "projectId",
          "type": "string"
        },
        {
          "indexed": false,
          "internalType": "uint256",
          "name": "amount",
          "type": "uint256"
        }
      ],
      "name": "CarbonCreditsIssued",
      "type": "event"
    },
    {
      "anonymous": false,
      "inputs": [
        {
          "indexed": true,
          "internalType": "string",
          "name": "projectId",
          "type": "string"
        },
        {
          "indexed": true,
          "internalType": "address",
          "name": "owner",
          "type": "address"
        }
      ],
      "name": "ProjectRegistered",
      "type": "event"
    },
    {
      "anonymous": false,
      "inputs": [
        {
          "indexed": true,
          "internalType": "string",
          "name": "projectId",
          "type": "string"
        },
        {
          "indexed": false,
          "internalType": "enum ProjectRegistry.ProjectStatus",
          "name": "newStatus",
          "type": "uint8"
        }
      ],
      "name": "ProjectStatusUpdated",
      "type": "event"
    },
    {
      "anonymous": false,
      "inputs": [
        {
          "indexed": true,
          "internalType": "bytes32",
          "name": "role",
          "type": "bytes32"
        },
        {
          "indexed": true,
          "internalType": "bytes32",
          "name": "previousAdminRole",
          "type": "bytes32"
        },
        {
          "indexed": true,
          "internalType": "bytes32",
          "name": "newAdminRole",
          "type": "bytes32"
        }
      ],
      "name": "RoleAdminChanged",
      "type": "event"
    },
    {
      "anonymous": false,
      "inputs": [
        {
          "indexed": true,
          "internalType": "bytes32",
          "name": "role",
          "type": "bytes32"
        },
        {
          "indexed": true,
          "internalType": "address",
          "name": "account",
          "type": "address"
        },
        {
          "indexed": true,
          "internalType": "address",
          "name": "sender",
          "type": "address"
        }
      ],
      "name": "RoleGranted",
      "type": "event"
    },
    {
      "anonymous": false,
      "inputs": [
        {
          "indexed": true,
          "internalType": "bytes32",
          "name": "role",
          "type": "bytes32"
        },
        {
          "indexed": true,
          "internalType": "address",
          "name": "account",
          "type": "address"
        },
        {
          "indexed": true,
          "internalType": "address",
          "name": "sender",
          "type": "address"
        }
      ],
      "name": "RoleRevoked",
      "type": "event"
    },
    {
      "inputs": [],
      "name": "DEFAULT_ADMIN_ROLE",
      "outputs": [
        {
          "internalType": "bytes32",
          "name": "",
          "type": "bytes32"
        }
      ],
      "stateMutability": "view",
      "type": "function"
    },
    {
      "inputs": [],
      "name": "REGISTRAR_ROLE",
      "outputs": [
        {
          "internalType": "bytes32",
          "name": "",
          "type": "bytes32"
        }
      ],
      "stateMutability": "view",
      "type": "function"
    },
    {
      "inputs": [],
      "name": "VERIFIER_ROLE",
      "outputs": [
        {
          "internalType": "bytes32",
          "name": "",
          "type": "bytes32"
        }
      ],
      "stateMutability": "view",
      "type": "function"
    },
    {
      "inputs": [
        {
          "internalType": "string",
          "name": "projectId",
          "type": "string"
        }
      ],
      "name": "getProject",
      "outputs": [
        {
          "components": [
            {
              "internalType": "string",
              "name": "projectId",
              "type": "string"
            },
            {
              "internalType": "address",
              "name": "owner",
              "type": "address"
            },
            {
              "internalType": "string",
              "name": "metadataURI",
              "type": "string"
            },
            {
              "internalType": "uint256",
              "name": "areaHectares",
              "type": "uint256"
            },
            {
              "internalType": "enum ProjectRegistry.ProjectStatus",
              "name": "status",
              "type": "uint8"
            },
            {
              "internalType": "uint256",
              "name": "estimatedCarbonCredits",
              "type": "uint256"
            },
            {
              "internalType": "uint256",
              "name": "issuedCarbonCredits",
              "type": "uint256"
            },
            {
              "internalType": "uint256",
              "name": "registrationDate",
              "type": "uint256"
            },
            {
              "internalType": "bool",
              "name": "exists",
              "type": "bool"
            }
          ],
          "internalType": "struct ProjectRegistry.Project",
          "name": "",
          "type": "tuple"
        }
      ],
      "stateMutability": "view",
      "type": "function"
    },
    {
      "inputs": [
        {
          "internalType": "address",
          "name": "owner",
          "type": "address"
        }
      ],
      "name": "getProjectsByOwner",
      "outputs": [
        {
          "internalType": "string[]",
          "name": "",
          "type": "string[]"
        }
      ],
      "stateMutability": "view",
      "type": "function"
    },
    {
      "inputs": [
        {
          "internalType": "bytes32",
          "name": "role",
          "type": "bytes32"
        }
      ],
      "name": "getRoleAdmin",
      "outputs": [
        {
          "internalType": "bytes32",
          "name": "",
          "type": "bytes32"
        }
      ],
      "stateMutability": "view",
      "type": "function"
    },
    {
      "inputs": [],
      "name": "getTotalProjects",
      "outputs": [
        {
          "internalType": "uint256",
          "name": "",
          "type": "uint256"
        }
      ],
      "stateMutability": "view",
      "type": "function"
    },
    {
      "inputs": [
        {
          "internalType": "bytes32",
          "name": "role",
          "type": "bytes32"
        },
        {
          "internalType": "address",
          "name": "account",
          "type": "address"
        }
      ],
      "name": "grantRole",
      "outputs": [],
      "stateMutability": "nonpayable",
      "type": "function"
    },
    {
      "inputs": [
        {
          "internalType": "bytes32",
          "name": "role",
          "type": "bytes32"
        },
        {
          "internalType": "address",
          "name": "account",
          "type": "address"
        }
      ],
      "name": "hasRole",
      "outputs": [
        {
          "internalType": "bool",
          "name": "",
          "type": "bool"
        }
      ],
      "stateMutability": "view",
      "type": "function"
    },
    {
      "inputs": [
        {
          "internalType": "string",
          "name": "projectId",
          "type": "string"
        },
        {
          "internalType": "uint256",
          "name": "issuedCredits",
          "type": "uint256"
        }
      ],
      "name": "recordIssuedCredits",
      "outputs": [],
      "stateMutability": "nonpayable",
      "type": "function"
    },
    {
      "inputs": [
        {
          "internalType": "string",
          "name": "projectId",
          "type": "string"
        },
        {
          "internalType": "string",
          "name": "metadataURI",
          "type": "string"
        },
        {
          "internalType": "uint256",
          "name": "areaHectares",
          "type": "uint256"
        }
      ],
      "name": "registerProject",
      "outputs": [
        {
          "internalType": "bool",
          "name": "",
          "type": "bool"
        }
      ],
      "stateMutability": "nonpayable",
      "type": "function"
    },
    {
      "inputs": [
        {
          "internalType": "bytes32",
          "name": "role",
          "type": "bytes32"
        },
        {
          "internalType": "address",
          "name": "callerConfirmation",
          "type": "address"
        }
      ],
      "name": "renounceRole",
      "outputs": [],
      "stateMutability": "nonpayable",
      "type": "function"
    },
    {
      "inputs": [
        {
          "internalType": "bytes32",
          "name": "role",
          "type": "bytes32"
        },
        {
          "internalType": "address",
          "name": "account",
          "type": "address"
        }
      ],
      "name": "revokeRole",
      "outputs": [],
      "stateMutability": "nonpayable",
      "type": "function"
    },
    {
      "inputs": [
        {
          "internalType": "string",
          "name": "projectId",
          "type": "string"
        },
        {
          "internalType": "uint256",
          "name": "estimatedCredits",
          "type": "uint256"
        }
      ],
      "name": "setEstimatedCredits",
      "outputs": [],
      "stateMutability": "nonpayable",
      "type": "function"
    },
    {
      "inputs": [
        {
          "internalType": "bytes4",
          "name": "interfaceId",
          "type": "bytes4"
        }
      ],
      "name": "supportsInterface",
      "outputs": [
        {
          "internalType": "bool",
          "name": "",
          "type": "bool"
        }
      ],
      "stateMutability": "view",
      "type": "function"
    },
    {
      "inputs": [
        {
          "internalType": "string",
          "name": "projectId",
          "type": "string"
        },
        {
          "internalType": "enum ProjectRegistry.ProjectStatus",
          "name": "newStatus",
          "type": "uint8"
        }
      ],
      "name": "updateProjectStatus",
      "outputs": [],
      "stateMutability": "nonpayable",
      "type": "function"
    }
  ],
  "bytecode": "0x608060405234801561001057600080fd5b5061001c600033610078565b506100477fedcc084d3dcd65a1f7f23c65c46722faca6953d28e43150a467cf43e5c30923833610078565b506100727f0ce23c3e399818cfee81a7ab0880f714e53d7672b08df0fa62f2843416e1ea0933610078565b50610124565b6000828152602081815260408083206001600160a01b038516845290915281205460ff1661011a576000838152602081815260408083206001600160a01b03861684529091529020805460ff191660011790556100d23390565b6001600160a01b0316826001600160a01b0316847f2f8788117e7eff1d82e926ec794901d17c78024a50270940304540a733656f0d60405160405180910390a450600161011e565b5060005b92915050565b61134f806101336000396000f3fe608060405234801561001057600080fd5b50600436106101005760003560e01c80639d9cc2fe11610097578063da8bb1cf11610066578063da8bb1cf14610222578063e7705db614610235578063f68e95531461024a578063fa81ae3f1461027157600080fd5b80639d9cc2fe146101d4578063a217fddf146101f4578063c7c7717e146101fc578063d547741f1461020f57600080fd5b80634533e288116100d35780634533e288146101865780634fa691e214610199578063812739a2146101b957806391d14854146101c157600080fd5b806301ffc9a714610105578063248a9ca31461012d5780632f2ff15d1461015e57806336568abe14610173575b600080fd5b610118610113366004610d22565b610284565b60405190151581526020015b60405180910390f35b61015061013b366004610d53565b60009081526020819052604090206001015490565b604051908152602001610124565b61017161016c366004610d88565b6102bb565b005b610171610181366004610d88565b6102e6565b610171610194366004610e57565b61031e565b6101ac6101a7366004610e9c565b6103f3565b6040516101249190610f61565b600254610150565b6101186101cf366004610d88565b610612565b6101e76101e2366004611017565b61063b565b6040516101249190611032565b610150600081565b61011861020a366004611094565b61072a565b61017161021d366004610d88565b6109aa565b610171610230366004610e57565b6109cf565b6101506000805160206112fa83398151915281565b6101507fedcc084d3dcd65a1f7f23c65c46722faca6953d28e43150a467cf43e5c30923881565b61017161027f366004611101565b610a92565b60006001600160e01b03198216637965db0b60e01b14806102b557506301ffc9a760e01b6001600160e01b03198316145b92915050565b6000828152602081905260409020600101546102d681610b73565b6102e08383610b80565b50505050565b6001600160a01b038116331461030f5760405163334bd91960e11b815260040160405180910390fd5b6103198282610c12565b505050565b6000805160206112fa83398151915261033681610b73565b6001836040516103469190611157565b9081526040519081900360200190206008015460ff166103815760405162461bcd60e51b815260040161037890611173565b60405180910390fd5b816001846040516103929190611157565b908152604051908190036020018120600501919091556103b3908490611157565b604051908190038120838252907f5d5ec2f17f065cd0b4f1beaea7e8a68d9f800a35e9b21dfe5f7c54a9071326cd906020015b60405180910390a2505050565b6103fb610cba565b60018260405161040b9190611157565b9081526040519081900360200190206008015460ff1661043d5760405162461bcd60e51b815260040161037890611173565b60018260405161044d9190611157565b908152602001604051809103902060405180610120016040529081600082018054610477906111a3565b80601f01602080910402602001604051908101604052809291908181526020018280546104a3906111a3565b80156104f05780601f106104c5576101008083540402835291602001916104f0565b820191906000526020600020905b8154815290600101906020018083116104d357829003601f168201915b505050918352505060018201546001600160a01b03166020820152600282018054604090920191610520906111a3565b80601f016020809104026020016040519081016040528092919081815260200182805461054c906111a3565b80156105995780601f1061056e57610100808354040283529160200191610599565b820191906000526020600020905b81548152906001019060200180831161057c57829003601f168201915b505050918352505060038201546020820152600482015460409091019060ff1660058111156105ca576105ca610f29565b60058111156105db576105db610f29565b815260058201546020820152600682015460408201526007820154606082015260089091015460ff16151560809091015292915050565b6000918252602082815260408084206001600160a01b0393909316845291905290205460ff1690565b6001600160a01b0381166000908152600360209081526040808320805482518185028101850190935280835260609492939192909184015b8282101561071f578382906000526020600020018054610692906111a3565b80601f01602080910402602001604051908101604052809291908181526020018280546106be906111a3565b801561070b5780601f106106e05761010080835404028352916020019161070b565b820191906000526020600020905b8154815290600101906020018083116106ee57829003601f168201915b505050505081526020019060010190610673565b505050509050919050565b600060018460405161073c9190611157565b9081526040519081900360200190206008015460ff16156107985760405162461bcd60e51b815260206004820152601660248201527550726f6a65637420616c72656164792065786973747360501b6044820152606401610378565b60008451116107de5760405162461bcd60e51b8152602060048201526012602482015271125b9d985b1a59081c1c9bda9958dd08125160721b6044820152606401610378565b60408051610120810182528581523360208201529081018490526060810183905260808101600081526020016000815260200160008152602001428152602001600115158152506001856040516108359190611157565b90815260405190819003602001902081518190610852908261122b565b5060208201516001820180546001600160a01b0319166001600160a01b039092169190911790556040820151600282019061088d908261122b565b5060608201516003820155608082015160048201805460ff191660018360058111156108bb576108bb610f29565b021790555060a0820151600582015560c0820151600682015560e08201516007820155610100909101516008909101805460ff1916911515919091179055600280546001810182556000919091527f405787fa12a823e0f2b7631cc41b3ba8828b3321ca811111fa75cd3aa3bb5ace01610935858261122b565b503360009081526003602090815260408220805460018101825590835291200161095f858261122b565b506040513390610970908690611157565b604051908190038120907f3a8f8a448d1a644d16017e531e2d5bc31fc5741cb919f2d72a9f1c3efe11213f90600090a35060019392505050565b6000828152602081905260409020600101546109c581610b73565b6102e08383610c12565b6000805160206112fa8339815191526109e781610b73565b6001836040516109f79190611157565b9081526040519081900360200190206008015460ff16610a295760405162461bcd60e51b815260040161037890611173565b81600184604051610a3a9190611157565b90815260405190819003602001812060060191909155610a5b908490611157565b604051908190038120838252907f6f8ad4d428aae4a89368c73d0710b12d29c00037131c118ee75a013832c1cda5906020016103e6565b6000805160206112fa833981519152610aaa81610b73565b600183604051610aba9190611157565b9081526040519081900360200190206008015460ff16610aec5760405162461bcd60e51b815260040161037890611173565b81600184604051610afd9190611157565b908152604051908190036020019020600401805460ff19166001836005811115610b2957610b29610f29565b021790555082604051610b3c9190611157565b60405180910390207fb8a5b3c69d3450db1d6ceddd2ee8e0bb183735adc86b6e2b8c0dbfcc45f2b652836040516103e691906112eb565b610b7d8133610c7d565b50565b6000610b8c8383610612565b610c0a576000838152602081815260408083206001600160a01b03861684529091529020805460ff19166001179055610bc23390565b6001600160a01b0316826001600160a01b0316847f2f8788117e7eff1d82e926ec794901d17c78024a50270940304540a733656f0d60405160405180910390a45060016102b5565b5060006102b5565b6000610c1e8383610612565b15610c0a576000838152602081815260408083206001600160a01b0386168085529252808320805460ff1916905551339286917ff6391f5c32d9c69d2a47ea670b442974b53935d1edc7fd64eb21e047a839171b9190a45060016102b5565b610c878282610612565b610cb65760405163e2517d3f60e01b81526001600160a01b038216600482015260248101839052604401610378565b5050565b6040518061012001604052806060815260200160006001600160a01b03168152602001606081526020016000815260200160006005811115610cfe57610cfe610f29565b81526020016000815260200160008152602001600081526020016000151581525090565b600060208284031215610d3457600080fd5b81356001600160e01b031981168114610d4c57600080fd5b9392505050565b600060208284031215610d6557600080fd5b5035919050565b80356001600160a01b0381168114610d8357600080fd5b919050565b60008060408385031215610d9b57600080fd5b82359150610dab60208401610d6c565b90509250929050565b634e487b7160e01b600052604160045260246000fd5b600082601f830112610ddb57600080fd5b813567ffffffffffffffff80821115610df657610df6610db4565b604051601f8301601f19908116603f01168101908282118183101715610e1e57610e1e610db4565b81604052838152866020858801011115610e3757600080fd5b836020870160208301376000602085830101528094505050505092915050565b60008060408385031215610e6a57600080fd5b823567ffffffffffffffff811115610e8157600080fd5b610e8d85828601610dca565b95602094909401359450505050565b600060208284031215610eae57600080fd5b813567ffffffffffffffff811115610ec557600080fd5b610ed184828501610dca565b949350505050565b60005b83811015610ef4578181015183820152602001610edc565b50506000910152565b60008151808452610f15816020860160208601610ed9565b601f01601f19169290920160200192915050565b634e487b7160e01b600052602160045260246000fd5b60068110610f5d57634e487b7160e01b600052602160045260246000fd5b9052565b6020815260008251610120806020850152610f80610140850183610efd565b91506020850151610f9c60408601826001600160a01b03169052565b506040850151848303601f19016060860152610fb88382610efd565b925050606085015160808501526080850151610fd760a0860182610f3f565b5060a085015160c085015260c085015160e085015260e085015161010081818701528087015191505061100d8286018215159052565b5090949350505050565b60006020828403121561102957600080fd5b610d4c82610d6c565b6000602080830181845280855180835260408601915060408160051b870101925083870160005b8281101561108757603f19888603018452611075858351610efd565b94509285019290850190600101611059565b5092979650505050505050565b6000806000606084860312156110a957600080fd5b833567ffffffffffffffff808211156110c157600080fd5b6110cd87838801610dca565b945060208601359150808211156110e357600080fd5b506110f086828701610dca565b925050604084013590509250925092565b6000806040838503121561111457600080fd5b823567ffffffffffffffff81111561112b57600080fd5b61113785828601610dca565b92505060208301356006811061114c57600080fd5b809150509250929050565b60008251611169818460208701610ed9565b9190910192915050565b602080825260169082015275141c9bda9958dd08191bd95cc81b9bdd08195e1a5cdd60521b604082015260600190565b600181811c908216806111b757607f821691505b6020821081036111d757634e487b7160e01b600052602260045260246000fd5b50919050565b601f82111561031957600081815260208120601f850160051c810160208610156112045750805b601f850160051c820191505b8181101561122357828155600101611210565b505050505050565b815167ffffffffffffffff81111561124557611245610db4565b6112598161125384546111a3565b846111dd565b602080601f83116001811461128e57600084156112765750858301515b600019600386901b1c1916600185901b178555611223565b600085815260208120601f198616915b828110156112bd5788860151825594840194600190910190840161129e565b50858210156112db5787850151600019600388901b60f8161c191681555b5050505050600190811b01905550565b602081016102b58284610f3f56fe0ce23c3e399818cfee81a7ab0880f714e53d7672b08df0fa62f2843416e1ea09a264697066735822122038bfc01a33e55717582f0166e2fe7c2b14afc03b415d1049c913204225496e2964736f6c63430008140033",
  "linkReferences": {},
  "deployedLinkReferences": {}
}