{
  "_format": "hh-sol-artifact-1",
  "contractName": "VerificationWorkflow",
  "sourceName": "contracts/VerificationWorkflow.sol",
  "abi": [
    {
      "inputs": [
        {
          "internalType": "address",
          "name": "_projectRegistry",
          "type": "address"
        },
        {
          "internalType": "address",
          "name": "_carbonToken",
          "type": "address"
        }
      ],
      "stateMutability": "nonpayable",
      "type": "constructor"
    },
    {
      "inputs": [],
      "name": "AccessControlBadConfirmation",
      "type": "error"
    },
    {
      "inputs": [
        {
          "internalType": "address",
          "name": "account",
          "type": "address"
        },
        {
          "internalType": "bytes32",
          "name": "neededRole",
          "type": "bytes32"
        }
      ],
      "name": "AccessControlUnauthorizedAccount",
      "type": "error"
    },
    {
      "anonymous": false,
      "inputs": [
        {
          "indexed": true,
          "internalType": "string",
          "name": "projectId",
          "type": "string"
        },
        {
          "indexed": true,
          "internalType": "address",
          "name": "verifier",
          "type": "address"
        },
        {
          "indexed": false,
          "internalType": "uint256",
          "name": "credits",
          "type": "uint256"
        }
      ],
      "name": "NCCRApprovalSubmitted",
      "type": "event"
    },
    {
      "anonymous": false,
      "inputs": [
        {
          "indexed": true,
          "internalType": "string",
          "name": "projectId",
          "type": "string"
        },
        {
          "indexed": true,
          "internalType": "address",
          "name": "verifier",
          "type": "address"
        }
      ],
      "name": "NGOVerificationSubmitted",
      "type": "event"
    },
    {
      "anonymous": false,
      "inputs": [
        {
          "indexed": true,
          "internalType": "string",
          "name": "projectId",
          "type": "string"
        },
        {
          "indexed": true,
          "internalType": "address",
          "name": "verifier",
          "type": "address"
        }
      ],
      "name": "PanchayatApprovalSubmitted",
      "type": "event"
    },
    {
      "anonymous": false,
      "inputs": [
        {
          "indexed": true,
          "internalType": "bytes32",
          "name": "role",
          "type": "bytes32"
        },
        {
          "indexed": true,
          "internalType": "bytes32",
          "name": "previousAdminRole",
          "type": "bytes32"
        },
        {
          "indexed": true,
          "internalType": "bytes32",
          "name": "newAdminRole",
          "type": "bytes32"
        }
      ],
      "name": "RoleAdminChanged",
      "type": "event"
    },
    {
      "anonymous": false,
      "inputs": [
        {
          "indexed": true,
          "internalType": "bytes32",
          "name": "role",
          "type": "bytes32"
        },
        {
          "indexed": true,
          "internalType": "address",
          "name": "account",
          "type": "address"
        },
        {
          "indexed": true,
          "internalType": "address",
          "name": "sender",
          "type": "address"
        }
      ],
      "name": "RoleGranted",
      "type": "event"
    },
    {
      "anonymous": false,
      "inputs": [
        {
          "indexed": true,
          "internalType": "bytes32",
          "name": "role",
          "type": "bytes32"
        },
        {
          "indexed": true,
          "internalType": "address",
          "name": "account",
          "type": "address"
        },
        {
          "indexed": true,
          "internalType": "address",
          "name": "sender",
          "type": "address"
        }
      ],
      "name": "RoleRevoked",
      "type": "event"
    },
    {
      "inputs": [],
      "name": "DEFAULT_ADMIN_ROLE",
      "outputs": [
        {
          "internalType": "bytes32",
          "name": "",
          "type": "bytes32"
        }
      ],
      "stateMutability": "view",
      "type": "function"
    },
    {
      "inputs": [],
      "name": "NCCR_ROLE",
      "outputs": [
        {
          "internalType": "bytes32",
          "name": "",
          "type": "bytes32"
        }
      ],
      "stateMutability": "view",
      "type": "function"
    },
    {
      "inputs": [],
      "name": "NGO_VERIFIER_ROLE",
      "outputs": [
        {
          "internalType": "bytes32",
          "name": "",
          "type": "bytes32"
        }
      ],
      "stateMutability": "view",
      "type": "function"
    },
    {
      "inputs": [],
      "name": "PANCHAYAT_ROLE",
      "outputs": [
        {
          "internalType": "bytes32",
          "name": "",
          "type": "bytes32"
        }
      ],
      "stateMutability": "view",
      "type": "function"
    },
    {
      "inputs": [],
      "name": "carbonToken",
      "outputs": [
        {
          "internalType": "contract CarbonCreditToken",
          "name": "",
          "type": "address"
        }
      ],
      "stateMutability": "view",
      "type": "function"
    },
    {
      "inputs": [
        {
          "internalType": "bytes32",
          "name": "role",
          "type": "bytes32"
        }
      ],
      "name": "getRoleAdmin",
      "outputs": [
        {
          "internalType": "bytes32",
          "name": "",
          "type": "bytes32"
        }
      ],
      "stateMutability": "view",
      "type": "function"
    },
    {
      "inputs": [
        {
          "internalType": "bytes32",
          "name": "role",
          "type": "bytes32"
        },
        {
          "internalType": "address",
          "name": "account",
          "type": "address"
        }
      ],
      "name": "grantRole",
      "outputs": [],
      "stateMutability": "nonpayable",
      "type": "function"
    },
    {
      "inputs": [
        {
          "internalType": "bytes32",
          "name": "role",
          "type": "bytes32"
        },
        {
          "internalType": "address",
          "name": "account",
          "type": "address"
        }
      ],
      "name": "hasRole",
      "outputs": [
        {
          "internalType": "bool",
          "name": "",
          "type": "bool"
        }
      ],
      "stateMutability": "view",
      "type": "function"
    },
    {
      "inputs": [
        {
          "internalType": "string",
          "name": "projectId",
          "type": "string"
        },
        {
          "internalType": "string",
          "name": "dataHash",
          "type": "string"
        },
        {
          "internalType": "uint256",
          "name": "carbonCredits",
          "type": "uint256"
        },
        {
          "internalType": "string",
          "name": "metadataURI",
          "type": "string"
        },
        {
          "internalType": "bool",
          "name": "approve",
          "type": "bool"
        }
      ],
      "name": "nccrApprove",
      "outputs": [],
      "stateMutability": "nonpayable",
      "type": "function"
    },
    {
      "inputs": [
        {
          "internalType": "string",
          "name": "",
          "type": "string"
        }
      ],
      "name": "nccrVerifications",
      "outputs": [
        {
          "internalType": "address",
          "name": "verifier",
          "type": "address"
        },
        {
          "internalType": "uint256",
          "name": "timestamp",
          "type": "uint256"
        },
        {
          "internalType": "string",
          "name": "dataHash",
          "type": "string"
        },
        {
          "internalType": "bool",
          "name": "approved",
          "type": "bool"
        }
      ],
      "stateMutability": "view",
      "type": "function"
    },
    {
      "inputs": [
        {
          "internalType": "string",
          "name": "",
          "type": "string"
        }
      ],
      "name": "ngoVerifications",
      "outputs": [
        {
          "internalType": "address",
          "name": "verifier",
          "type": "address"
        },
        {
          "internalType": "uint256",
          "name": "timestamp",
          "type": "uint256"
        },
        {
          "internalType": "string",
          "name": "dataHash",
          "type": "string"
        },
        {
          "internalType": "bool",
          "name": "approved",
          "type": "bool"
        }
      ],
      "stateMutability": "view",
      "type": "function"
    },
    {
      "inputs": [
        {
          "internalType": "string",
          "name": "projectId",
          "type": "string"
        },
        {
          "internalType": "string",
          "name": "dataHash",
          "type": "string"
        },
        {
          "internalType": "bool",
          "name": "approve",
          "type": "bool"
        }
      ],
      "name": "ngoVerify",
      "outputs": [],
      "stateMutability": "nonpayable",
      "type": "function"
    },
    {
      "inputs": [
        {
          "internalType": "string",
          "name": "projectId",
          "type": "string"
        },
        {
          "internalType": "string",
          "name": "dataHash",
          "type": "string"
        },
        {
          "internalType": "bool",
          "name": "approve",
          "type": "bool"
        }
      ],
      "name": "panchayatApprove",
      "outputs": [],
      "stateMutability": "nonpayable",
      "type": "function"
    },
    {
      "inputs": [
        {
          "internalType": "string",
          "name": "",
          "type": "string"
        }
      ],
      "name": "panchayatVerifications",
      "outputs": [
        {
          "internalType": "address",
          "name": "verifier",
          "type": "address"
        },
        {
          "internalType": "uint256",
          "name": "timestamp",
          "type": "uint256"
        },
        {
          "internalType": "string",
          "name": "dataHash",
          "type": "string"
        },
        {
          "internalType": "bool",
          "name": "approved",
          "type": "bool"
        }
      ],
      "stateMutability": "view",
      "type": "function"
    },
    {
      "inputs": [],
      "name": "projectRegistry",
      "outputs": [
        {
          "internalType": "contract ProjectRegistry",
          "name": "",
          "type": "address"
        }
      ],
      "stateMutability": "view",
      "type": "function"
    },
    {
      "inputs": [
        {
          "internalType": "bytes32",
          "name": "role",
          "type": "bytes32"
        },
        {
          "internalType": "address",
          "name": "callerConfirmation",
          "type": "address"
        }
      ],
      "name": "renounceRole",
      "outputs": [],
      "stateMutability": "nonpayable",
      "type": "function"
    },
    {
      "inputs": [
        {
          "internalType": "bytes32",
          "name": "role",
          "type": "bytes32"
        },
        {
          "internalType": "address",
          "name": "account",
          "type": "address"
        }
      ],
      "name": "revokeRole",
      "outputs": [],
      "stateMutability": "nonpayable",
      "type": "function"
    },
    {
      "inputs": [
        {
          "internalType": "bytes4",
          "name": "interfaceId",
          "type": "bytes4"
        }
      ],
      "name": "supportsInterface",
      "outputs": [
        {
          "internalType": "bool",
          "name": "",
          "type": "bool"
        }
      ],
      "stateMutability": "view",
      "type": "function"
    }
  ],
  "bytecode": "0x60806040523480156200001157600080fd5b5060405162001897380380620018978339810160408190526200003491620001cd565b600180546001600160a01b038085166001600160a01b03199283161790925560028054928416929091169190911790556200007160003362000101565b506200009e7ff2526f5ce767e873a36313c0bc5b51c9f8f3b75e6ea9d92b722d8d4ee8b36ab33362000101565b50620000cb7f3de722a189b59b051c68af8a1ac4f9d912922bc8fafbcbfd5f9281905c7708fc3362000101565b50620000f87f46f8f6469c35cc90936c17504881d77338aa4239ab235d3552afff96a6b8a3d43362000101565b50505062000205565b6000828152602081815260408083206001600160a01b038516845290915281205460ff16620001a6576000838152602081815260408083206001600160a01b03861684529091529020805460ff191660011790556200015d3390565b6001600160a01b0316826001600160a01b0316847f2f8788117e7eff1d82e926ec794901d17c78024a50270940304540a733656f0d60405160405180910390a4506001620001aa565b5060005b92915050565b80516001600160a01b0381168114620001c857600080fd5b919050565b60008060408385031215620001e157600080fd5b620001ec83620001b0565b9150620001fc60208401620001b0565b90509250929050565b61168280620002156000396000f3fe608060405234801561001057600080fd5b50600436106101165760003560e01c80635a33d8dc116100a257806391d148541161007157806391d14854146102ab578063a217fddf146102be578063afb2b0ad146102c6578063d547741f146102d9578063d5f302f7146102ec57600080fd5b80635a33d8dc146102475780636f308b081461027257806382a71ef2146102855780638e3538071461029857600080fd5b80632f2ff15d116100e95780632f2ff15d146101b057806336568abe146101c35780633d3e46f1146101d65780633e54721e146101fd57806345a09a851461022457600080fd5b806301ffc9a71461011b57806315ef9ff914610143578063248a9ca314610178578063267fd0e11461019b575b600080fd5b61012e610129366004610f33565b6102ff565b60405190151581526020015b60405180910390f35b61016a7f3de722a189b59b051c68af8a1ac4f9d912922bc8fafbcbfd5f9281905c7708fc81565b60405190815260200161013a565b61016a610186366004610f64565b60009081526020819052604090206001015490565b6101ae6101a936600461107a565b610336565b005b6101ae6101be366004611107565b61050f565b6101ae6101d1366004611107565b61053a565b61016a7ff2526f5ce767e873a36313c0bc5b51c9f8f3b75e6ea9d92b722d8d4ee8b36ab381565b61016a7f46f8f6469c35cc90936c17504881d77338aa4239ab235d3552afff96a6b8a3d481565b610237610232366004611137565b610572565b60405161013a94939291906111c4565b60015461025a906001600160a01b031681565b6040516001600160a01b03909116815260200161013a565b610237610280366004611137565b61063b565b60025461025a906001600160a01b031681565b6102376102a6366004611137565b610678565b61012e6102b9366004611107565b6106b5565b61016a600081565b6101ae6102d43660046111fe565b6106de565b6101ae6102e7366004611107565b610b7a565b6101ae6102fa36600461107a565b610b9f565b60006001600160e01b03198216637965db0b60e01b148061033057506301ffc9a760e01b6001600160e01b03198316145b92915050565b7ff2526f5ce767e873a36313c0bc5b51c9f8f3b75e6ea9d92b722d8d4ee8b36ab361036081610dec565b60408051608081018252338152426020820152808201859052831515606082015290516003906103919087906112a5565b9081526040805160209281900383019020835181546001600160a01b0319166001600160a01b0390911617815591830151600183015582015160028201906103d99082611341565b50606091909101516003909101805460ff19169115159190911790558115610463576001805460405163fa81ae3f60e01b81526001600160a01b039091169163fa81ae3f9161042c918891600401611401565b600060405180830381600087803b15801561044657600080fd5b505af115801561045a573d6000803e3d6000fd5b505050506104c9565b60015460405163fa81ae3f60e01b81526001600160a01b039091169063fa81ae3f90610496908790600590600401611401565b600060405180830381600087803b1580156104b057600080fd5b505af11580156104c4573d6000803e3d6000fd5b505050505b60405133906104d99086906112a5565b604051908190038120907fc8fb0c27c7be00aafe47e32917ace3ccf70af77aa4664277d071bc2e7dc9bce690600090a350505050565b60008281526020819052604090206001015461052a81610dec565b6105348383610df9565b50505050565b6001600160a01b03811633146105635760405163334bd91960e11b815260040160405180910390fd5b61056d8282610e8b565b505050565b80516020818301810180516004825292820191909301209152805460018201546002830180546001600160a01b039093169391926105af906112c1565b80601f01602080910402602001604051908101604052809291908181526020018280546105db906112c1565b80156106285780601f106105fd57610100808354040283529160200191610628565b820191906000526020600020905b81548152906001019060200180831161060b57829003601f168201915b5050506003909301549192505060ff1684565b80516020818301810180516003825292820191909301209152805460018201546002830180546001600160a01b039093169391926105af906112c1565b80516020818301810180516005825292820191909301209152805460018201546002830180546001600160a01b039093169391926105af906112c1565b6000918252602082815260408084206001600160a01b0393909316845291905290205460ff1690565b7f46f8f6469c35cc90936c17504881d77338aa4239ab235d3552afff96a6b8a3d461070881610dec565b60048660405161071891906112a5565b9081526040519081900360200190206003015460ff1661077f5760405162461bcd60e51b815260206004820152601e60248201527f50616e63686179617420617070726f76616c206e6f74206772616e746564000060448201526064015b60405180910390fd5b60408051608081018252338152426020820152808201879052831515606082015290516005906107b09089906112a5565b9081526040805160209281900383019020835181546001600160a01b0319166001600160a01b0390911617815591830151600183015582015160028201906107f89082611341565b50606091909101516003909101805460ff19169115159190911790558115610b0c5760015460405163fa81ae3f60e01b81526001600160a01b039091169063fa81ae3f9061084d908990600390600401611401565b600060405180830381600087803b15801561086757600080fd5b505af115801561087b573d6000803e3d6000fd5b505060015460405163da8bb1cf60e01b81526001600160a01b03909116925063da8bb1cf91506108b19089908890600401611441565b600060405180830381600087803b1580156108cb57600080fd5b505af11580156108df573d6000803e3d6000fd5b5050600254604051632e61e43160e21b8152600093506001600160a01b03909116915063b98790c490610916908a90600401611463565b602060405180830381865afa158015610933573d6000803e3d6000fd5b505050506040513d601f19601f820116820180604052508101906109579190611476565b9050806000036109d857600254604051633b21929d60e11b81526001600160a01b0390911690637643253a90610993908a90889060040161148f565b6020604051808303816000875af11580156109b2573d6000803e3d6000fd5b505050506040513d601f19601f820116820180604052508101906109d69190611476565b505b6001546040516327d348f160e11b81526000916001600160a01b031690634fa691e290610a09908b90600401611463565b600060405180830381865afa158015610a26573d6000803e3d6000fd5b505050506040513d6000823e601f3d908101601f19168201604052610a4e919081019061152c565b60025460208201516040516325eedfe560e11b81529293506001600160a01b0390911691634bddbfca91610a89918c91908b9060040161161e565b600060405180830381600087803b158015610aa357600080fd5b505af1158015610ab7573d6000803e3d6000fd5b5050604051339250610acb91508a906112a5565b604051908190038120888252907f9ec9afd5205d39bff0a2daeefbedb1396b3fb4cd28885f532226711ae394b81d9060200160405180910390a35050610b72565b60015460405163fa81ae3f60e01b81526001600160a01b039091169063fa81ae3f90610b3f908990600590600401611401565b600060405180830381600087803b158015610b5957600080fd5b505af1158015610b6d573d6000803e3d6000fd5b505050505b505050505050565b600082815260208190526040902060010154610b9581610dec565b6105348383610e8b565b7f3de722a189b59b051c68af8a1ac4f9d912922bc8fafbcbfd5f9281905c7708fc610bc981610dec565b600384604051610bd991906112a5565b9081526040519081900360200190206003015460ff16610c3b5760405162461bcd60e51b815260206004820152601d60248201527f4e474f20766572696669636174696f6e206e6f7420617070726f7665640000006044820152606401610776565b6040805160808101825233815242602082015280820185905283151560608201529051600490610c6c9087906112a5565b9081526040805160209281900383019020835181546001600160a01b0319166001600160a01b039091161781559183015160018301558201516002820190610cb49082611341565b50606091909101516003909101805460ff19169115159190911790558115610d405760015460405163fa81ae3f60e01b81526001600160a01b039091169063fa81ae3f90610d09908790600290600401611401565b600060405180830381600087803b158015610d2357600080fd5b505af1158015610d37573d6000803e3d6000fd5b50505050610da6565b60015460405163fa81ae3f60e01b81526001600160a01b039091169063fa81ae3f90610d73908790600590600401611401565b600060405180830381600087803b158015610d8d57600080fd5b505af1158015610da1573d6000803e3d6000fd5b505050505b6040513390610db69086906112a5565b604051908190038120907f49b7efea65afeffbddfe76ff7cf559ba15ada903e20847a7e557df2e297d0eb590600090a350505050565b610df68133610ef6565b50565b6000610e0583836106b5565b610e83576000838152602081815260408083206001600160a01b03861684529091529020805460ff19166001179055610e3b3390565b6001600160a01b0316826001600160a01b0316847f2f8788117e7eff1d82e926ec794901d17c78024a50270940304540a733656f0d60405160405180910390a4506001610330565b506000610330565b6000610e9783836106b5565b15610e83576000838152602081815260408083206001600160a01b0386168085529252808320805460ff1916905551339286917ff6391f5c32d9c69d2a47ea670b442974b53935d1edc7fd64eb21e047a839171b9190a4506001610330565b610f0082826106b5565b610f2f5760405163e2517d3f60e01b81526001600160a01b038216600482015260248101839052604401610776565b5050565b600060208284031215610f4557600080fd5b81356001600160e01b031981168114610f5d57600080fd5b9392505050565b600060208284031215610f7657600080fd5b5035919050565b634e487b7160e01b600052604160045260246000fd5b604051610120810167ffffffffffffffff81118282101715610fb757610fb7610f7d565b60405290565b604051601f8201601f1916810167ffffffffffffffff81118282101715610fe657610fe6610f7d565b604052919050565b600067ffffffffffffffff82111561100857611008610f7d565b50601f01601f191660200190565b600082601f83011261102757600080fd5b813561103a61103582610fee565b610fbd565b81815284602083860101111561104f57600080fd5b816020850160208301376000918101602001919091529392505050565b8015158114610df657600080fd5b60008060006060848603121561108f57600080fd5b833567ffffffffffffffff808211156110a757600080fd5b6110b387838801611016565b945060208601359150808211156110c957600080fd5b506110d686828701611016565b92505060408401356110e78161106c565b809150509250925092565b6001600160a01b0381168114610df657600080fd5b6000806040838503121561111a57600080fd5b82359150602083013561112c816110f2565b809150509250929050565b60006020828403121561114957600080fd5b813567ffffffffffffffff81111561116057600080fd5b61116c84828501611016565b949350505050565b60005b8381101561118f578181015183820152602001611177565b50506000910152565b600081518084526111b0816020860160208601611174565b601f01601f19169290920160200192915050565b60018060a01b03851681528360208201526080604082015260006111eb6080830185611198565b9050821515606083015295945050505050565b600080600080600060a0868803121561121657600080fd5b853567ffffffffffffffff8082111561122e57600080fd5b61123a89838a01611016565b9650602088013591508082111561125057600080fd5b61125c89838a01611016565b955060408801359450606088013591508082111561127957600080fd5b5061128688828901611016565b92505060808601356112978161106c565b809150509295509295909350565b600082516112b7818460208701611174565b9190910192915050565b600181811c908216806112d557607f821691505b6020821081036112f557634e487b7160e01b600052602260045260246000fd5b50919050565b601f82111561056d57600081815260208120601f850160051c810160208610156113225750805b601f850160051c820191505b81811015610b725782815560010161132e565b815167ffffffffffffffff81111561135b5761135b610f7d565b61136f8161136984546112c1565b846112fb565b602080601f8311600181146113a4576000841561138c5750858301515b600019600386901b1c1916600185901b178555610b72565b600085815260208120601f198616915b828110156113d3578886015182559484019460019091019084016113b4565b50858210156113f15787850151600019600388901b60f8161c191681555b5050505050600190811b01905550565b6040815260006114146040830185611198565b90506006831061143457634e487b7160e01b600052602160045260246000fd5b8260208301529392505050565b6040815260006114546040830185611198565b90508260208301529392505050565b602081526000610f5d6020830184611198565b60006020828403121561148857600080fd5b5051919050565b6040815260006114a26040830185611198565b82810360208401526114b48185611198565b95945050505050565b600082601f8301126114ce57600080fd5b81516114dc61103582610fee565b8181528460208386010111156114f157600080fd5b61116c826020830160208701611174565b805161150d816110f2565b919050565b80516006811061150d57600080fd5b805161150d8161106c565b60006020828403121561153e57600080fd5b815167ffffffffffffffff8082111561155657600080fd5b90830190610120828603121561156b57600080fd5b611573610f93565b82518281111561158257600080fd5b61158e878286016114bd565b82525061159d60208401611502565b60208201526040830151828111156115b457600080fd5b6115c0878286016114bd565b604083015250606083015160608201526115dc60808401611512565b608082015260a083015160a082015260c083015160c082015260e083015160e0820152610100915061160f828401611521565b91810191909152949350505050565b6060815260006116316060830186611198565b6001600160a01b03949094166020830152506040015291905056fea2646970667358221220a9207dcdc4cc3fd841bc326f78b4be2cf504f7d3cbfff01f45ca95066c5e1e1164736f6c63430008140033",
  "linkReferences": {},
  "deployedLinkReferences": {}
}