{
  "_format": "hh-sol-artifact-1",
  "contractName": "CarbonMarketplace",
  "sourceName": "contracts/CarbonMarketplace.sol",
  "abi": [
    {
      "inputs": [
        {
          "internalType": "address",
          "name": "_carbonToken",
          "type": "address"
        },
        {
          "internalType": "address",
          "name": "_feeRecipient",
          "type": "address"
        }
      ],
      "stateMutability": "nonpayable",
      "type": "constructor"
    },
    {
      "inputs": [],
      "name": "AccessControlBadConfirmation",
      "type": "error"
    },
    {
      "inputs": [
        {
          "internalType": "address",
          "name": "account",
          "type": "address"
        },
        {
          "internalType": "bytes32",
          "name": "neededRole",
          "type": "bytes32"
        }
      ],
      "name": "AccessControlUnauthorizedAccount",
      "type": "error"
    },
    {
      "anonymous": false,
      "inputs": [
        {
          "indexed": true,
          "internalType": "uint256",
          "name": "listingId",
          "type": "uint256"
        }
      ],
      "name": "ListingCancelled",
      "type": "event"
    },
    {
      "anonymous": false,
      "inputs": [
        {
          "indexed": true,
          "internalType": "uint256",
          "name": "listingId",
          "type": "uint256"
        },
        {
          "indexed": true,
          "internalType": "address",
          "name": "seller",
          "type": "address"
        },
        {
          "indexed": false,
          "internalType": "uint256",
          "name": "tokenId",
          "type": "uint256"
        },
        {
          "indexed": false,
          "internalType": "uint256",
          "name": "amount",
          "type": "uint256"
        },
        {
          "indexed": false,
          "internalType": "uint256",
          "name": "price",
          "type": "uint256"
        }
      ],
      "name": "ListingCreated",
      "type": "event"
    },
    {
      "anonymous": false,
      "inputs": [
        {
          "indexed": true,
          "internalType": "bytes32",
          "name": "role",
          "type": "bytes32"
        },
        {
          "indexed": true,
          "internalType": "bytes32",
          "name": "previousAdminRole",
          "type": "bytes32"
        },
        {
          "indexed": true,
          "internalType": "bytes32",
          "name": "newAdminRole",
          "type": "bytes32"
        }
      ],
      "name": "RoleAdminChanged",
      "type": "event"
    },
    {
      "anonymous": false,
      "inputs": [
        {
          "indexed": true,
          "internalType": "bytes32",
          "name": "role",
          "type": "bytes32"
        },
        {
          "indexed": true,
          "internalType": "address",
          "name": "account",
          "type": "address"
        },
        {
          "indexed": true,
          "internalType": "address",
          "name": "sender",
          "type": "address"
        }
      ],
      "name": "RoleGranted",
      "type": "event"
    },
    {
      "anonymous": false,
      "inputs": [
        {
          "indexed": true,
          "internalType": "bytes32",
          "name": "role",
          "type": "bytes32"
        },
        {
          "indexed": true,
          "internalType": "address",
          "name": "account",
          "type": "address"
        },
        {
          "indexed": true,
          "internalType": "address",
          "name": "sender",
          "type": "address"
        }
      ],
      "name": "RoleRevoked",
      "type": "event"
    },
    {
      "anonymous": false,
      "inputs": [
        {
          "indexed": true,
          "internalType": "uint256",
          "name": "listingId",
          "type": "uint256"
        },
        {
          "indexed": true,
          "internalType": "address",
          "name": "buyer",
          "type": "address"
        },
        {
          "indexed": false,
          "internalType": "uint256",
          "name": "amount",
          "type": "uint256"
        },
        {
          "indexed": false,
          "internalType": "uint256",
          "name": "totalPrice",
          "type": "uint256"
        }
      ],
      "name": "TradeExecuted",
      "type": "event"
    },
    {
      "inputs": [],
      "name": "DEFAULT_ADMIN_ROLE",
      "outputs": [
        {
          "internalType": "bytes32",
          "name": "",
          "type": "bytes32"
        }
      ],
      "stateMutability": "view",
      "type": "function"
    },
    {
      "inputs": [],
      "name": "OPERATOR_ROLE",
      "outputs": [
        {
          "internalType": "bytes32",
          "name": "",
          "type": "bytes32"
        }
      ],
      "stateMutability": "view",
      "type": "function"
    },
    {
      "inputs": [
        {
          "internalType": "uint256",
          "name": "listingId",
          "type": "uint256"
        },
        {
          "internalType": "uint256",
          "name": "amount",
          "type": "uint256"
        }
      ],
      "name": "buyCredits",
      "outputs": [],
      "stateMutability": "payable",
      "type": "function"
    },
    {
      "inputs": [
        {
          "internalType": "uint256",
          "name": "listingId",
          "type": "uint256"
        }
      ],
      "name": "cancelListing",
      "outputs": [],
      "stateMutability": "nonpayable",
      "type": "function"
    },
    {
      "inputs": [],
      "name": "carbonToken",
      "outputs": [
        {
          "internalType": "contract CarbonCreditToken",
          "name": "",
          "type": "address"
        }
      ],
      "stateMutability": "view",
      "type": "function"
    },
    {
      "inputs": [
        {
          "internalType": "uint256",
          "name": "tokenId",
          "type": "uint256"
        },
        {
          "internalType": "uint256",
          "name": "amount",
          "type": "uint256"
        },
        {
          "internalType": "uint256",
          "name": "pricePerCredit",
          "type": "uint256"
        }
      ],
      "name": "createListing",
      "outputs": [
        {
          "internalType": "uint256",
          "name": "",
          "type": "uint256"
        }
      ],
      "stateMutability": "nonpayable",
      "type": "function"
    },
    {
      "inputs": [],
      "name": "feeRecipient",
      "outputs": [
        {
          "internalType": "address",
          "name": "",
          "type": "address"
        }
      ],
      "stateMutability": "view",
      "type": "function"
    },
    {
      "inputs": [
        {
          "internalType": "bytes32",
          "name": "role",
          "type": "bytes32"
        }
      ],
      "name": "getRoleAdmin",
      "outputs": [
        {
          "internalType": "bytes32",
          "name": "",
          "type": "bytes32"
        }
      ],
      "stateMutability": "view",
      "type": "function"
    },
    {
      "inputs": [
        {
          "internalType": "bytes32",
          "name": "role",
          "type": "bytes32"
        },
        {
          "internalType": "address",
          "name": "account",
          "type": "address"
        }
      ],
      "name": "grantRole",
      "outputs": [],
      "stateMutability": "nonpayable",
      "type": "function"
    },
    {
      "inputs": [
        {
          "internalType": "bytes32",
          "name": "role",
          "type": "bytes32"
        },
        {
          "internalType": "address",
          "name": "account",
          "type": "address"
        }
      ],
      "name": "hasRole",
      "outputs": [
        {
          "internalType": "bool",
          "name": "",
          "type": "bool"
        }
      ],
      "stateMutability": "view",
      "type": "function"
    },
    {
      "inputs": [
        {
          "internalType": "uint256",
          "name": "",
          "type": "uint256"
        }
      ],
      "name": "listings",
      "outputs": [
        {
          "internalType": "uint256",
          "name": "listingId",
          "type": "uint256"
        },
        {
          "internalType": "address",
          "name": "seller",
          "type": "address"
        },
        {
          "internalType": "uint256",
          "name": "tokenId",
          "type": "uint256"
        },
        {
          "internalType": "uint256",
          "name": "amount",
          "type": "uint256"
        },
        {
          "internalType": "uint256",
          "name": "pricePerCredit",
          "type": "uint256"
        },
        {
          "internalType": "bool",
          "name": "active",
          "type": "bool"
        }
      ],
      "stateMutability": "view",
      "type": "function"
    },
    {
      "inputs": [],
      "name": "marketplaceFee",
      "outputs": [
        {
          "internalType": "uint256",
          "name": "",
          "type": "uint256"
        }
      ],
      "stateMutability": "view",
      "type": "function"
    },
    {
      "inputs": [
        {
          "internalType": "address",
          "name": "",
          "type": "address"
        },
        {
          "internalType": "address",
          "name": "",
          "type": "address"
        },
        {
          "internalType": "uint256[]",
          "name": "",
          "type": "uint256[]"
        },
        {
          "internalType": "uint256[]",
          "name": "",
          "type": "uint256[]"
        },
        {
          "internalType": "bytes",
          "name": "",
          "type": "bytes"
        }
      ],
      "name": "onERC1155BatchReceived",
      "outputs": [
        {
          "internalType": "bytes4",
          "name": "",
          "type": "bytes4"
        }
      ],
      "stateMutability": "nonpayable",
      "type": "function"
    },
    {
      "inputs": [
        {
          "internalType": "address",
          "name": "",
          "type": "address"
        },
        {
          "internalType": "address",
          "name": "",
          "type": "address"
        },
        {
          "internalType": "uint256",
          "name": "",
          "type": "uint256"
        },
        {
          "internalType": "uint256",
          "name": "",
          "type": "uint256"
        },
        {
          "internalType": "bytes",
          "name": "",
          "type": "bytes"
        }
      ],
      "name": "onERC1155Received",
      "outputs": [
        {
          "internalType": "bytes4",
          "name": "",
          "type": "bytes4"
        }
      ],
      "stateMutability": "nonpayable",
      "type": "function"
    },
    {
      "inputs": [
        {
          "internalType": "bytes32",
          "name": "role",
          "type": "bytes32"
        },
        {
          "internalType": "address",
          "name": "callerConfirmation",
          "type": "address"
        }
      ],
      "name": "renounceRole",
      "outputs": [],
      "stateMutability": "nonpayable",
      "type": "function"
    },
    {
      "inputs": [
        {
          "internalType": "bytes32",
          "name": "role",
          "type": "bytes32"
        },
        {
          "internalType": "address",
          "name": "account",
          "type": "address"
        }
      ],
      "name": "revokeRole",
      "outputs": [],
      "stateMutability": "nonpayable",
      "type": "function"
    },
    {
      "inputs": [
        {
          "internalType": "uint256",
          "name": "newFee",
          "type": "uint256"
        }
      ],
      "name": "setMarketplaceFee",
      "outputs": [],
      "stateMutability": "nonpayable",
      "type": "function"
    },
    {
      "inputs": [
        {
          "internalType": "bytes4",
          "name": "interfaceId",
          "type": "bytes4"
        }
      ],
      "name": "supportsInterface",
      "outputs": [
        {
          "internalType": "bool",
          "name": "",
          "type": "bool"
        }
      ],
      "stateMutability": "view",
      "type": "function"
    }
  ],
  "bytecode": "0x608060405260c86003553480156200001657600080fd5b50604051620012d1380380620012d1833981016040819052620000399162000178565b600180546001600160a01b038085166001600160a01b031992831617909255600480549284169290911691909117905562000076600033620000ac565b50620000a37f97667070c54ef182b0f5858b034beac1b6f3089aa2d3188bb1e8929f4fa9b92933620000ac565b505050620001b0565b6000828152602081815260408083206001600160a01b038516845290915281205460ff1662000151576000838152602081815260408083206001600160a01b03861684529091529020805460ff19166001179055620001083390565b6001600160a01b0316826001600160a01b0316847f2f8788117e7eff1d82e926ec794901d17c78024a50270940304540a733656f0d60405160405180910390a450600162000155565b5060005b92915050565b80516001600160a01b03811681146200017357600080fd5b919050565b600080604083850312156200018c57600080fd5b62000197836200015b565b9150620001a7602084016200015b565b90509250929050565b61111180620001c06000396000f3fe6080604052600436106101095760003560e01c806391d1485411610095578063bc197c8111610064578063bc197c81146102d9578063d547741f1461031e578063de74e57b1461033e578063f23a6e61146103d2578063f5b541a6146103fe57600080fd5b806391d14854146102645780639407ea9814610284578063a217fddf146102a4578063b03053b6146102b957600080fd5b806336568abe116100dc57806336568abe146101c357806346904840146101e3578063479c84571461021b5780636a1669641461022e57806382a71ef21461024457600080fd5b806301ffc9a71461010e578063248a9ca3146101435780632f2ff15d14610181578063305a67a8146101a3575b600080fd5b34801561011a57600080fd5b5061012e610129366004610d02565b610432565b60405190151581526020015b60405180910390f35b34801561014f57600080fd5b5061017361015e366004610d33565b60009081526020819052604090206001015490565b60405190815260200161013a565b34801561018d57600080fd5b506101a161019c366004610d68565b610443565b005b3480156101af57600080fd5b506101a16101be366004610d33565b61046e565b3480156101cf57600080fd5b506101a16101de366004610d68565b6105c5565b3480156101ef57600080fd5b50600454610203906001600160a01b031681565b6040516001600160a01b03909116815260200161013a565b6101a1610229366004610d94565b6105fd565b34801561023a57600080fd5b5061017360035481565b34801561025057600080fd5b50600154610203906001600160a01b031681565b34801561027057600080fd5b5061012e61027f366004610d68565b6108c2565b34801561029057600080fd5b506101a161029f366004610d33565b6108eb565b3480156102b057600080fd5b50610173600081565b3480156102c557600080fd5b506101736102d4366004610db6565b61093d565b3480156102e557600080fd5b506103056102f4366004610f19565b63bc197c8160e01b95945050505050565b6040516001600160e01b0319909116815260200161013a565b34801561032a57600080fd5b506101a1610339366004610d68565b610b3c565b34801561034a57600080fd5b5061039b610359366004610d33565b600560208190526000918252604090912080546001820154600283015460038401546004850154949095015492946001600160a01b0390921693909260ff1686565b604080519687526001600160a01b0390951660208701529385019290925260608401526080830152151560a082015260c00161013a565b3480156103de57600080fd5b506103056103ed366004610fc3565b63f23a6e6160e01b95945050505050565b34801561040a57600080fd5b506101737f97667070c54ef182b0f5858b034beac1b6f3089aa2d3188bb1e8929f4fa9b92981565b600061043d82610b61565b92915050565b60008281526020819052604090206001015461045e81610b86565b6104688383610b93565b50505050565b600081815260056020526040902060018101546001600160a01b031633146104d15760405162461bcd60e51b81526020600482015260116024820152702737ba103634b9ba34b7339037bbb732b960791b60448201526064015b60405180910390fd5b600581015460ff1661051a5760405162461bcd60e51b81526020600482015260126024820152714c697374696e67206e6f742061637469766560701b60448201526064016104c8565b60058101805460ff1916905560015460028201546003830154604051637921219560e11b81526001600160a01b039093169263f242432a9261056492309233929190600401611028565b600060405180830381600087803b15801561057e57600080fd5b505af1158015610592573d6000803e3d6000fd5b50506040518492507f411aee90354c51b1b04cd563fcab2617142a9d50da19232d888547c8a1b7fd8a9150600090a25050565b6001600160a01b03811633146105ee5760405163334bd91960e11b815260040160405180910390fd5b6105f88282610c25565b505050565b60008281526005602081905260409091209081015460ff166106565760405162461bcd60e51b81526020600482015260126024820152714c697374696e67206e6f742061637469766560701b60448201526064016104c8565b80600301548211156106a05760405162461bcd60e51b8152602060048201526013602482015272125b9cdd59999a58da595b9d08185b5bdd5b9d606a1b60448201526064016104c8565b60008160040154836106b29190611076565b9050803410156106fb5760405162461bcd60e51b8152602060048201526014602482015273125b9cdd59999a58da595b9d081c185e5b595b9d60621b60448201526064016104c8565b60006127106003548361070e9190611076565b610718919061108d565b9050600061072682846110af565b90508484600301600082825461073c91906110af565b9091555050600384015460000361075a5760058401805460ff191690555b6001546002850154604051637921219560e11b81526001600160a01b039092169163f242432a9161079391309133918b90600401611028565b600060405180830381600087803b1580156107ad57600080fd5b505af11580156107c1573d6000803e3d6000fd5b50505060018501546040516001600160a01b03909116915082156108fc029083906000818181858888f19350505050158015610801573d6000803e3d6000fd5b506004546040516001600160a01b039091169083156108fc029084906000818181858888f1935050505015801561083c573d6000803e3d6000fd5b508234111561087d57336108fc61085385346110af565b6040518115909202916000818181858888f1935050505015801561087b573d6000803e3d6000fd5b505b6040805186815260208101859052339188917fb6bb24d48b7a7f099035f05122f42b3c661a517945b8ffeff8032243d76aa771910160405180910390a3505050505050565b6000918252602082815260408084206001600160a01b0393909316845291905290205460ff1690565b60006108f681610b86565b6103e88211156109375760405162461bcd60e51b815260206004820152600c60248201526b08ccaca40e8dede40d0d2ced60a31b60448201526064016104c8565b50600355565b600080831161098e5760405162461bcd60e51b815260206004820152601d60248201527f416d6f756e74206d7573742062652067726561746572207468616e203000000060448201526064016104c8565b600082116109de5760405162461bcd60e51b815260206004820152601c60248201527f5072696365206d7573742062652067726561746572207468616e20300000000060448201526064016104c8565b600154604051637921219560e11b81526001600160a01b039091169063f242432a90610a14903390309089908990600401611028565b600060405180830381600087803b158015610a2e57600080fd5b505af1158015610a42573d6000803e3d6000fd5b505060028054925090506000610a57836110c2565b9091555050600280546040805160c0810182528281523360208083018281528385018b815260608086018c8152608087018c8152600160a0890181815260008c81526005808a52908c90209a518b559651918a0180546001600160a01b0319166001600160a01b039093169290921790915593519a88019a909a5551600387015597516004860155519301805460ff19169315159390931790925582518981529182018890529181018690529192909183917fa3941cfa07eecf2734875ab71cea0e47395be644da6e17b039a7e29efba74ef9910160405180910390a3949350505050565b600082815260208190526040902060010154610b5781610b86565b6104688383610c25565b60006001600160e01b03198216630271189760e51b148061043d575061043d82610c90565b610b908133610cc5565b50565b6000610b9f83836108c2565b610c1d576000838152602081815260408083206001600160a01b03861684529091529020805460ff19166001179055610bd53390565b6001600160a01b0316826001600160a01b0316847f2f8788117e7eff1d82e926ec794901d17c78024a50270940304540a733656f0d60405160405180910390a450600161043d565b50600061043d565b6000610c3183836108c2565b15610c1d576000838152602081815260408083206001600160a01b0386168085529252808320805460ff1916905551339286917ff6391f5c32d9c69d2a47ea670b442974b53935d1edc7fd64eb21e047a839171b9190a450600161043d565b60006001600160e01b03198216637965db0b60e01b148061043d57506301ffc9a760e01b6001600160e01b031983161461043d565b610ccf82826108c2565b610cfe5760405163e2517d3f60e01b81526001600160a01b0382166004820152602481018390526044016104c8565b5050565b600060208284031215610d1457600080fd5b81356001600160e01b031981168114610d2c57600080fd5b9392505050565b600060208284031215610d4557600080fd5b5035919050565b80356001600160a01b0381168114610d6357600080fd5b919050565b60008060408385031215610d7b57600080fd5b82359150610d8b60208401610d4c565b90509250929050565b60008060408385031215610da757600080fd5b50508035926020909101359150565b600080600060608486031215610dcb57600080fd5b505081359360208301359350604090920135919050565b634e487b7160e01b600052604160045260246000fd5b604051601f8201601f1916810167ffffffffffffffff81118282101715610e2157610e21610de2565b604052919050565b600082601f830112610e3a57600080fd5b8135602067ffffffffffffffff821115610e5657610e56610de2565b8160051b610e65828201610df8565b9283528481018201928281019087851115610e7f57600080fd5b83870192505b84831015610e9e57823582529183019190830190610e85565b979650505050505050565b600082601f830112610eba57600080fd5b813567ffffffffffffffff811115610ed457610ed4610de2565b610ee7601f8201601f1916602001610df8565b818152846020838601011115610efc57600080fd5b816020850160208301376000918101602001919091529392505050565b600080600080600060a08688031215610f3157600080fd5b610f3a86610d4c565b9450610f4860208701610d4c565b9350604086013567ffffffffffffffff80821115610f6557600080fd5b610f7189838a01610e29565b94506060880135915080821115610f8757600080fd5b610f9389838a01610e29565b93506080880135915080821115610fa957600080fd5b50610fb688828901610ea9565b9150509295509295909350565b600080600080600060a08688031215610fdb57600080fd5b610fe486610d4c565b9450610ff260208701610d4c565b93506040860135925060608601359150608086013567ffffffffffffffff81111561101c57600080fd5b610fb688828901610ea9565b6001600160a01b0394851681529290931660208301526040820152606081019190915260a06080820181905260009082015260c00190565b634e487b7160e01b600052601160045260246000fd5b808202811582820484141761043d5761043d611060565b6000826110aa57634e487b7160e01b600052601260045260246000fd5b500490565b8181038181111561043d5761043d611060565b6000600182016110d4576110d4611060565b506001019056fea2646970667358221220e787a44c9b55681116ea4446e4153df06c0916ebab8e98dbf36e7a52c836bf6064736f6c63430008140033",
  "linkReferences": {},
  "deployedLinkReferences": {}
}