{
  "_format": "hh-sol-artifact-1",
  "contractName": "CarbonCreditToken",
  "sourceName": "contracts/CarbonCreditToken.sol",
  "abi": [
    {
      "inputs": [],
      "stateMutability": "nonpayable",
      "type": "constructor"
    },
    {
      "inputs": [],
      "name": "AccessControlBadConfirmation",
      "type": "error"
    },
    {
      "inputs": [
        {
          "internalType": "address",
          "name": "account",
          "type": "address"
        },
        {
          "internalType": "bytes32",
          "name": "neededRole",
          "type": "bytes32"
        }
      ],
      "name": "AccessControlUnauthorizedAccount",
      "type": "error"
    },
    {
      "inputs": [
        {
          "internalType": "address",
          "name": "sender",
          "type": "address"
        },
        {
          "internalType": "uint256",
          "name": "balance",
          "type": "uint256"
        },
        {
          "internalType": "uint256",
          "name": "needed",
          "type": "uint256"
        },
        {
          "internalType": "uint256",
          "name": "tokenId",
          "type": "uint256"
        }
      ],
      "name": "ERC1155InsufficientBalance",
      "type": "error"
    },
    {
      "inputs": [
        {
          "internalType": "address",
          "name": "approver",
          "type": "address"
        }
      ],
      "name": "ERC1155InvalidApprover",
      "type": "error"
    },
    {
      "inputs": [
        {
          "internalType": "uint256",
          "name": "idsLength",
          "type": "uint256"
        },
        {
          "internalType": "uint256",
          "name": "valuesLength",
          "type": "uint256"
        }
      ],
      "name": "ERC1155InvalidArrayLength",
      "type": "error"
    },
    {
      "inputs": [
        {
          "internalType": "address",
          "name": "operator",
          "type": "address"
        }
      ],
      "name": "ERC1155InvalidOperator",
      "type": "error"
    },
    {
      "inputs": [
        {
          "internalType": "address",
          "name": "receiver",
          "type": "address"
        }
      ],
      "name": "ERC1155InvalidReceiver",
      "type": "error"
    },
    {
      "inputs": [
        {
          "internalType": "address",
          "name": "sender",
          "type": "address"
        }
      ],
      "name": "ERC1155InvalidSender",
      "type": "error"
    },
    {
      "inputs": [
        {
          "internalType": "address",
          "name": "operator",
          "type": "address"
        },
        {
          "internalType": "address",
          "name": "owner",
          "type": "address"
        }
      ],
      "name": "ERC1155MissingApprovalForAll",
      "type": "error"
    },
    {
      "anonymous": false,
      "inputs": [
        {
          "indexed": true,
          "internalType": "address",
          "name": "account",
          "type": "address"
        },
        {
          "indexed": true,
          "internalType": "address",
          "name": "operator",
          "type": "address"
        },
        {
          "indexed": false,
          "internalType": "bool",
          "name": "approved",
          "type": "bool"
        }
      ],
      "name": "ApprovalForAll",
      "type": "event"
    },
    {
      "anonymous": false,
      "inputs": [
        {
          "indexed": true,
          "internalType": "uint256",
          "name": "tokenId",
          "type": "uint256"
        },
        {
          "indexed": true,
          "internalType": "address",
          "name": "recipient",
          "type": "address"
        },
        {
          "indexed": false,
          "internalType": "uint256",
          "name": "amount",
          "type": "uint256"
        }
      ],
      "name": "CreditsMinted",
      "type": "event"
    },
    {
      "anonymous": false,
      "inputs": [
        {
          "indexed": true,
          "internalType": "uint256",
          "name": "tokenId",
          "type": "uint256"
        },
        {
          "indexed": true,
          "internalType": "address",
          "name": "account",
          "type": "address"
        },
        {
          "indexed": false,
          "internalType": "uint256",
          "name": "amount",
          "type": "uint256"
        }
      ],
      "name": "CreditsRetired",
      "type": "event"
    },
    {
      "anonymous": false,
      "inputs": [
        {
          "indexed": true,
          "internalType": "uint256",
          "name": "tokenId",
          "type": "uint256"
        },
        {
          "indexed": true,
          "internalType": "string",
          "name": "projectId",
          "type": "string"
        }
      ],
      "name": "ProjectTokenCreated",
      "type": "event"
    },
    {
      "anonymous": false,
      "inputs": [
        {
          "indexed": true,
          "internalType": "bytes32",
          "name": "role",
          "type": "bytes32"
        },
        {
          "indexed": true,
          "internalType": "bytes32",
          "name": "previousAdminRole",
          "type": "bytes32"
        },
        {
          "indexed": true,
          "internalType": "bytes32",
          "name": "newAdminRole",
          "type": "bytes32"
        }
      ],
      "name": "RoleAdminChanged",
      "type": "event"
    },
    {
      "anonymous": false,
      "inputs": [
        {
          "indexed": true,
          "internalType": "bytes32",
          "name": "role",
          "type": "bytes32"
        },
        {
          "indexed": true,
          "internalType": "address",
          "name": "account",
          "type": "address"
        },
        {
          "indexed": true,
          "internalType": "address",
          "name": "sender",
          "type": "address"
        }
      ],
      "name": "RoleGranted",
      "type": "event"
    },
    {
      "anonymous": false,
      "inputs": [
        {
          "indexed": true,
          "internalType": "bytes32",
          "name": "role",
          "type": "bytes32"
        },
        {
          "indexed": true,
          "internalType": "address",
          "name": "account",
          "type": "address"
        },
        {
          "indexed": true,
          "internalType": "address",
          "name": "sender",
          "type": "address"
        }
      ],
      "name": "RoleRevoked",
      "type": "event"
    },
    {
      "anonymous": false,
      "inputs": [
        {
          "indexed": true,
          "internalType": "address",
          "name": "operator",
          "type": "address"
        },
        {
          "indexed": true,
          "internalType": "address",
          "name": "from",
          "type": "address"
        },
        {
          "indexed": true,
          "internalType": "address",
          "name": "to",
          "type": "address"
        },
        {
          "indexed": false,
          "internalType": "uint256[]",
          "name": "ids",
          "type": "uint256[]"
        },
        {
          "indexed": false,
          "internalType": "uint256[]",
          "name": "values",
          "type": "uint256[]"
        }
      ],
      "name": "TransferBatch",
      "type": "event"
    },
    {
      "anonymous": false,
      "inputs": [
        {
          "indexed": true,
          "internalType": "address",
          "name": "operator",
          "type": "address"
        },
        {
          "indexed": true,
          "internalType": "address",
          "name": "from",
          "type": "address"
        },
        {
          "indexed": true,
          "internalType": "address",
          "name": "to",
          "type": "address"
        },
        {
          "indexed": false,
          "internalType": "uint256",
          "name": "id",
          "type": "uint256"
        },
        {
          "indexed": false,
          "internalType": "uint256",
          "name": "value",
          "type": "uint256"
        }
      ],
      "name": "TransferSingle",
      "type": "event"
    },
    {
      "anonymous": false,
      "inputs": [
        {
          "indexed": false,
          "internalType": "string",
          "name": "value",
          "type": "string"
        },
        {
          "indexed": true,
          "internalType": "uint256",
          "name": "id",
          "type": "uint256"
        }
      ],
      "name": "URI",
      "type": "event"
    },
    {
      "inputs": [],
      "name": "BURNER_ROLE",
      "outputs": [
        {
          "internalType": "bytes32",
          "name": "",
          "type": "bytes32"
        }
      ],
      "stateMutability": "view",
      "type": "function"
    },
    {
      "inputs": [],
      "name": "DEFAULT_ADMIN_ROLE",
      "outputs": [
        {
          "internalType": "bytes32",
          "name": "",
          "type": "bytes32"
        }
      ],
      "stateMutability": "view",
      "type": "function"
    },
    {
      "inputs": [],
      "name": "MINTER_ROLE",
      "outputs": [
        {
          "internalType": "bytes32",
          "name": "",
          "type": "bytes32"
        }
      ],
      "stateMutability": "view",
      "type": "function"
    },
    {
      "inputs": [
        {
          "internalType": "address",
          "name": "account",
          "type": "address"
        },
        {
          "internalType": "uint256",
          "name": "id",
          "type": "uint256"
        }
      ],
      "name": "balanceOf",
      "outputs": [
        {
          "internalType": "uint256",
          "name": "",
          "type": "uint256"
        }
      ],
      "stateMutability": "view",
      "type": "function"
    },
    {
      "inputs": [
        {
          "internalType": "address[]",
          "name": "accounts",
          "type": "address[]"
        },
        {
          "internalType": "uint256[]",
          "name": "ids",
          "type": "uint256[]"
        }
      ],
      "name": "balanceOfBatch",
      "outputs": [
        {
          "internalType": "uint256[]",
          "name": "",
          "type": "uint256[]"
        }
      ],
      "stateMutability": "view",
      "type": "function"
    },
    {
      "inputs": [
        {
          "internalType": "string",
          "name": "projectId",
          "type": "string"
        },
        {
          "internalType": "string",
          "name": "metadataURI",
          "type": "string"
        }
      ],
      "name": "createProjectToken",
      "outputs": [
        {
          "internalType": "uint256",
          "name": "",
          "type": "uint256"
        }
      ],
      "stateMutability": "nonpayable",
      "type": "function"
    },
    {
      "inputs": [
        {
          "internalType": "uint256",
          "name": "tokenId",
          "type": "uint256"
        }
      ],
      "name": "getProjectInfo",
      "outputs": [
        {
          "internalType": "string",
          "name": "projectId",
          "type": "string"
        },
        {
          "internalType": "uint256",
          "name": "totalSupply",
          "type": "uint256"
        },
        {
          "internalType": "uint256",
          "name": "retired",
          "type": "uint256"
        },
        {
          "internalType": "string",
          "name": "metadataURI",
          "type": "string"
        }
      ],
      "stateMutability": "view",
      "type": "function"
    },
    {
      "inputs": [
        {
          "internalType": "bytes32",
          "name": "role",
          "type": "bytes32"
        }
      ],
      "name": "getRoleAdmin",
      "outputs": [
        {
          "internalType": "bytes32",
          "name": "",
          "type": "bytes32"
        }
      ],
      "stateMutability": "view",
      "type": "function"
    },
    {
      "inputs": [
        {
          "internalType": "string",
          "name": "projectId",
          "type": "string"
        }
      ],
      "name": "getTokenIdForProject",
      "outputs": [
        {
          "internalType": "uint256",
          "name": "",
          "type": "uint256"
        }
      ],
      "stateMutability": "view",
      "type": "function"
    },
    {
      "inputs": [
        {
          "internalType": "bytes32",
          "name": "role",
          "type": "bytes32"
        },
        {
          "internalType": "address",
          "name": "account",
          "type": "address"
        }
      ],
      "name": "grantRole",
      "outputs": [],
      "stateMutability": "nonpayable",
      "type": "function"
    },
    {
      "inputs": [
        {
          "internalType": "bytes32",
          "name": "role",
          "type": "bytes32"
        },
        {
          "internalType": "address",
          "name": "account",
          "type": "address"
        }
      ],
      "name": "hasRole",
      "outputs": [
        {
          "internalType": "bool",
          "name": "",
          "type": "bool"
        }
      ],
      "stateMutability": "view",
      "type": "function"
    },
    {
      "inputs": [
        {
          "internalType": "address",
          "name": "account",
          "type": "address"
        },
        {
          "internalType": "address",
          "name": "operator",
          "type": "address"
        }
      ],
      "name": "isApprovedForAll",
      "outputs": [
        {
          "internalType": "bool",
          "name": "",
          "type": "bool"
        }
      ],
      "stateMutability": "view",
      "type": "function"
    },
    {
      "inputs": [
        {
          "internalType": "string",
          "name": "projectId",
          "type": "string"
        },
        {
          "internalType": "address",
          "name": "recipient",
          "type": "address"
        },
        {
          "internalType": "uint256",
          "name": "amount",
          "type": "uint256"
        }
      ],
      "name": "mintCredits",
      "outputs": [],
      "stateMutability": "nonpayable",
      "type": "function"
    },
    {
      "inputs": [
        {
          "internalType": "string",
          "name": "",
          "type": "string"
        }
      ],
      "name": "projectToToken",
      "outputs": [
        {
          "internalType": "uint256",
          "name": "",
          "type": "uint256"
        }
      ],
      "stateMutability": "view",
      "type": "function"
    },
    {
      "inputs": [
        {
          "internalType": "bytes32",
          "name": "role",
          "type": "bytes32"
        },
        {
          "internalType": "address",
          "name": "callerConfirmation",
          "type": "address"
        }
      ],
      "name": "renounceRole",
      "outputs": [],
      "stateMutability": "nonpayable",
      "type": "function"
    },
    {
      "inputs": [
        {
          "internalType": "uint256",
          "name": "tokenId",
          "type": "uint256"
        },
        {
          "internalType": "uint256",
          "name": "amount",
          "type": "uint256"
        }
      ],
      "name": "retireCredits",
      "outputs": [],
      "stateMutability": "nonpayable",
      "type": "function"
    },
    {
      "inputs": [
        {
          "internalType": "uint256",
          "name": "",
          "type": "uint256"
        }
      ],
      "name": "retiredCredits",
      "outputs": [
        {
          "internalType": "uint256",
          "name": "",
          "type": "uint256"
        }
      ],
      "stateMutability": "view",
      "type": "function"
    },
    {
      "inputs": [
        {
          "internalType": "bytes32",
          "name": "role",
          "type": "bytes32"
        },
        {
          "internalType": "address",
          "name": "account",
          "type": "address"
        }
      ],
      "name": "revokeRole",
      "outputs": [],
      "stateMutability": "nonpayable",
      "type": "function"
    },
    {
      "inputs": [
        {
          "internalType": "address",
          "name": "from",
          "type": "address"
        },
        {
          "internalType": "address",
          "name": "to",
          "type": "address"
        },
        {
          "internalType": "uint256[]",
          "name": "ids",
          "type": "uint256[]"
        },
        {
          "internalType": "uint256[]",
          "name": "values",
          "type": "uint256[]"
        },
        {
          "internalType": "bytes",
          "name": "data",
          "type": "bytes"
        }
      ],
      "name": "safeBatchTransferFrom",
      "outputs": [],
      "stateMutability": "nonpayable",
      "type": "function"
    },
    {
      "inputs": [
        {
          "internalType": "address",
          "name": "from",
          "type": "address"
        },
        {
          "internalType": "address",
          "name": "to",
          "type": "address"
        },
        {
          "internalType": "uint256",
          "name": "id",
          "type": "uint256"
        },
        {
          "internalType": "uint256",
          "name": "value",
          "type": "uint256"
        },
        {
          "internalType": "bytes",
          "name": "data",
          "type": "bytes"
        }
      ],
      "name": "safeTransferFrom",
      "outputs": [],
      "stateMutability": "nonpayable",
      "type": "function"
    },
    {
      "inputs": [
        {
          "internalType": "address",
          "name": "operator",
          "type": "address"
        },
        {
          "internalType": "bool",
          "name": "approved",
          "type": "bool"
        }
      ],
      "name": "setApprovalForAll",
      "outputs": [],
      "stateMutability": "nonpayable",
      "type": "function"
    },
    {
      "inputs": [
        {
          "internalType": "bytes4",
          "name": "interfaceId",
          "type": "bytes4"
        }
      ],
      "name": "supportsInterface",
      "outputs": [
        {
          "internalType": "bool",
          "name": "",
          "type": "bool"
        }
      ],
      "stateMutability": "view",
      "type": "function"
    },
    {
      "inputs": [
        {
          "internalType": "uint256",
          "name": "",
          "type": "uint256"
        }
      ],
      "name": "tokenSupply",
      "outputs": [
        {
          "internalType": "uint256",
          "name": "",
          "type": "uint256"
        }
      ],
      "stateMutability": "view",
      "type": "function"
    },
    {
      "inputs": [
        {
          "internalType": "uint256",
          "name": "",
          "type": "uint256"
        }
      ],
      "name": "tokenToProject",
      "outputs": [
        {
          "internalType": "string",
          "name": "",
          "type": "string"
        }
      ],
      "stateMutability": "view",
      "type": "function"
    },
    {
      "inputs": [
        {
          "internalType": "uint256",
          "name": "tokenId",
          "type": "uint256"
        }
      ],
      "name": "uri",
      "outputs": [
        {
          "internalType": "string",
          "name": "",
          "type": "string"
        }
      ],
      "stateMutability": "view",
      "type": "function"
    }
  ],
  "bytecode": "0x60806040523480156200001157600080fd5b506040805160208101909152600081526200002c816200009b565b506200003a600033620000ad565b50620000677f9f2df0fed2c77648de5860a4cc508cd0818c85b8b8a1ab4ceeef8d981c8956a633620000ad565b50620000947f3c11d16cbaffd01df69ce1c404f6340ee057498f5f00246190ea54220576a84833620000ad565b50620002d1565b6002620000a9828262000205565b5050565b60008281526003602090815260408083206001600160a01b038516845290915281205460ff16620001565760008381526003602090815260408083206001600160a01b03861684529091529020805460ff191660011790556200010d3390565b6001600160a01b0316826001600160a01b0316847f2f8788117e7eff1d82e926ec794901d17c78024a50270940304540a733656f0d60405160405180910390a45060016200015a565b5060005b92915050565b634e487b7160e01b600052604160045260246000fd5b600181811c908216806200018b57607f821691505b602082108103620001ac57634e487b7160e01b600052602260045260246000fd5b50919050565b601f8211156200020057600081815260208120601f850160051c81016020861015620001db5750805b601f850160051c820191505b81811015620001fc57828155600101620001e7565b5050505b505050565b81516001600160401b0381111562000221576200022162000160565b620002398162000232845462000176565b84620001b2565b602080601f831160018114620002715760008415620002585750858301515b600019600386901b1c1916600185901b178555620001fc565b600085815260208120601f198616915b82811015620002a25788860151825594840194600190910190840162000281565b5085821015620002c15787850151600019600388901b60f8161c191681555b5050505050600190811b01905550565b611e4480620002e16000396000f3fe608060405234801561001057600080fd5b50600436106101725760003560e01c80634e1273f4116100de578063b98790c411610097578063e985e9c511610071578063e985e9c514610397578063ef205c1a146103aa578063f242432a146103ca578063fabf5968146103dd57600080fd5b8063b98790c41461034a578063d53913931461035d578063d547741f1461038457600080fd5b80634e1273f4146102d65780637643253a146102f6578063911d25521461030957806391d148541461031c578063a217fddf1461032f578063a22cb4651461033757600080fd5b8063282c51f311610130578063282c51f31461024e5780632eb2c2d6146102755780632f2ff15d1461028a57806336568abe1461029d5780633ea0fb13146102b05780634bddbfca146102c357600080fd5b8062fdd58e1461017757806301ffc9a71461019d5780630e89341c146101c05780631d8a7f93146101e0578063248a9ca31461020b5780632693ebf21461022e575b600080fd5b61018a610185366004611556565b610400565b6040519081526020015b60405180910390f35b6101b06101ab366004611596565b610428565b6040519015158152602001610194565b6101d36101ce3660046115ba565b610433565b6040516101949190611623565b61018a6101ee3660046116ed565b805160208183018101805160068252928201919093012091525481565b61018a6102193660046115ba565b60009081526003602052604090206001015490565b61018a61023c3660046115ba565b60076020526000908152604090205481565b61018a7f3c11d16cbaffd01df69ce1c404f6340ee057498f5f00246190ea54220576a84881565b6102886102833660046117b9565b6104d5565b005b610288610298366004611863565b610541565b6102886102ab366004611863565b61056c565b6102886102be36600461188f565b6105a4565b6102886102d13660046118b1565b61065d565b6102e96102e4366004611908565b61077f565b6040516101949190611a03565b61018a610304366004611a16565b610854565b6101d36103173660046115ba565b6109a3565b6101b061032a366004611863565b610a3d565b61018a600081565b610288610345366004611a70565b610a68565b61018a6103583660046116ed565b610a77565b61018a7f9f2df0fed2c77648de5860a4cc508cd0818c85b8b8a1ab4ceeef8d981c8956a681565b610288610392366004611863565b610a9f565b6101b06103a5366004611aac565b610ac4565b61018a6103b83660046115ba565b60086020526000908152604090205481565b6102886103d8366004611ad6565b610af2565b6103f06103eb3660046115ba565b610b51565b6040516101949493929190611b3b565b6000818152602081815260408083206001600160a01b03861684529091529020545b92915050565b600061042282610cb1565b600081815260096020526040902080546060919061045090611b77565b80601f016020809104026020016040519081016040528092919081815260200182805461047c90611b77565b80156104c95780601f1061049e576101008083540402835291602001916104c9565b820191906000526020600020905b8154815290600101906020018083116104ac57829003601f168201915b50505050509050919050565b336001600160a01b03861681148015906104f657506104f48682610ac4565b155b1561052c5760405163711bec9160e11b81526001600160a01b038083166004830152871660248201526044015b60405180910390fd5b6105398686868686610cd6565b505050505050565b60008281526003602052604090206001015461055c81610d3d565b6105668383610d4a565b50505050565b6001600160a01b03811633146105955760405163334bd91960e11b815260040160405180910390fd5b61059f8282610dde565b505050565b806105af3384610400565b10156105f45760405162461bcd60e51b8152602060048201526014602482015273496e73756666696369656e742062616c616e636560601b6044820152606401610523565b6105ff338383610e4b565b6000828152600860205260408120805483929061061d908490611bc7565b9091555050604051818152339083907f31995d78296d80ec997704a03d4e6295c44e8755e8117523fb44bf086c306dcb9060200160405180910390a35050565b7f9f2df0fed2c77648de5860a4cc508cd0818c85b8b8a1ab4ceeef8d981c8956a661068781610d3d565b60006006856040516106999190611bda565b9081526020016040518091039020549050806000036106fa5760405162461bcd60e51b815260206004820152601c60248201527f50726f6a65637420746f6b656e20646f6573206e6f74206578697374000000006044820152606401610523565b61071584828560405180602001604052806000815250610eb3565b60008181526007602052604081208054859290610733908490611bc7565b90915550506040518381526001600160a01b0385169082907f921c08e825069e4d980f75f8c9d39ab505649f98d18f620f19759e16f0e3ba6b9060200160405180910390a35050505050565b606081518351146107b05781518351604051635b05999160e01b815260048101929092526024820152604401610523565b6000835167ffffffffffffffff8111156107cc576107cc611636565b6040519080825280602002602001820160405280156107f5578160200160208202803683370190505b50905060005b845181101561084c5760208082028601015161081f90602080840287010151610400565b82828151811061083157610831611bf6565b602090810291909101015261084581611c0c565b90506107fb565b509392505050565b60007f9f2df0fed2c77648de5860a4cc508cd0818c85b8b8a1ab4ceeef8d981c8956a661088081610d3d565b6006846040516108909190611bda565b9081526020016040518091039020546000146108ee5760405162461bcd60e51b815260206004820152601c60248201527f50726f6a65637420746f6b656e20616c726561647920657869737473000000006044820152606401610523565b600480549060006108fe83611c0c565b9091555050600454600081815260056020526040902061091e8682611c6b565b50806006866040516109309190611bda565b908152604080516020928190038301902092909255600083815260099091522061095a8582611c6b565b50846040516109699190611bda565b6040519081900381209082907fb0910f3c527943f5bbf103eb29fba7c2b10062094ab16ecd5e5fdd23ed13976790600090a3949350505050565b600560205260009081526040902080546109bc90611b77565b80601f01602080910402602001604051908101604052809291908181526020018280546109e890611b77565b8015610a355780601f10610a0a57610100808354040283529160200191610a35565b820191906000526020600020905b815481529060010190602001808311610a1857829003601f168201915b505050505081565b60009182526003602090815260408084206001600160a01b0393909316845291905290205460ff1690565b610a73338383610f10565b5050565b6000600682604051610a899190611bda565b9081526020016040518091039020549050919050565b600082815260036020526040902060010154610aba81610d3d565b6105668383610dde565b6001600160a01b03918216600090815260016020908152604080832093909416825291909152205460ff1690565b336001600160a01b0386168114801590610b135750610b118682610ac4565b155b15610b445760405163711bec9160e11b81526001600160a01b03808316600483015287166024820152604401610523565b6105398686868686610fa6565b60606000806060600560008681526020019081526020016000208054610b7690611b77565b80601f0160208091040260200160405190810160405280929190818152602001828054610ba290611b77565b8015610bef5780601f10610bc457610100808354040283529160200191610bef565b820191906000526020600020905b815481529060010190602001808311610bd257829003601f168201915b5050506000888152600760209081526040808320546008835281842054600990935292208054959950919750955092610c2a92509050611b77565b80601f0160208091040260200160405190810160405280929190818152602001828054610c5690611b77565b8015610ca35780601f10610c7857610100808354040283529160200191610ca3565b820191906000526020600020905b815481529060010190602001808311610c8657829003601f168201915b505050505090509193509193565b60006001600160e01b03198216637965db0b60e01b1480610422575061042282611034565b6001600160a01b038416610d0057604051632bfa23e760e11b815260006004820152602401610523565b6001600160a01b038516610d2957604051626a0d4560e21b815260006004820152602401610523565b610d368585858585611084565b5050505050565b610d4781336110d7565b50565b6000610d568383610a3d565b610dd65760008381526003602090815260408083206001600160a01b03861684529091529020805460ff19166001179055610d8e3390565b6001600160a01b0316826001600160a01b0316847f2f8788117e7eff1d82e926ec794901d17c78024a50270940304540a733656f0d60405160405180910390a4506001610422565b506000610422565b6000610dea8383610a3d565b15610dd65760008381526003602090815260408083206001600160a01b0386168085529252808320805460ff1916905551339286917ff6391f5c32d9c69d2a47ea670b442974b53935d1edc7fd64eb21e047a839171b9190a4506001610422565b6001600160a01b038316610e7457604051626a0d4560e21b815260006004820152602401610523565b604080516001808252602082018590528183019081526060820184905260a08201909252600060808201818152919291610d3691879185908590611084565b6001600160a01b038416610edd57604051632bfa23e760e11b815260006004820152602401610523565b60408051600180825260208201869052818301908152606082018590526080820190925290610539600087848487611084565b6001600160a01b038216610f395760405162ced3e160e81b815260006004820152602401610523565b6001600160a01b03838116600081815260016020908152604080832094871680845294825291829020805460ff191686151590811790915591519182527f17307eab39ab6107e8899845ad3d59bd9653f200f220920489ca2b5937696c31910160405180910390a3505050565b6001600160a01b038416610fd057604051632bfa23e760e11b815260006004820152602401610523565b6001600160a01b038516610ff957604051626a0d4560e21b815260006004820152602401610523565b6040805160018082526020820186905281830190815260608201859052608082019092529061102b8787848487611084565b50505050505050565b60006001600160e01b03198216636cdb3d1360e11b148061106557506001600160e01b031982166303a24d0760e21b145b8061042257506301ffc9a760e01b6001600160e01b0319831614610422565b61109085858585611110565b6001600160a01b03841615610d3657825133906001036110c957602084810151908401516110c283898985858961132d565b5050610539565b610539818787878787611451565b6110e18282610a3d565b610a735760405163e2517d3f60e01b81526001600160a01b038216600482015260248101839052604401610523565b805182511461113f5781518151604051635b05999160e01b815260048101929092526024820152604401610523565b3360005b835181101561124e576020818102858101820151908501909101516001600160a01b038816156111f6576000828152602081815260408083206001600160a01b038c168452909152902054818110156111cf576040516303dee4c560e01b81526001600160a01b038a166004820152602481018290526044810183905260648101849052608401610523565b6000838152602081815260408083206001600160a01b038d16845290915290209082900390555b6001600160a01b0387161561123b576000828152602081815260408083206001600160a01b038b16845290915281208054839290611235908490611bc7565b90915550505b50508061124790611c0c565b9050611143565b5082516001036112cf5760208301516000906020840151909150856001600160a01b0316876001600160a01b0316846001600160a01b03167fc3d58168c5ae7397731d063d5bbf3d657854427343f4c083240f7aacaa2d0f6285856040516112c0929190918252602082015260400190565b60405180910390a45050610d36565b836001600160a01b0316856001600160a01b0316826001600160a01b03167f4a39dc06d4c0dbc64b70af90fd698a233a518aa5d07e595d983b8c0526c8f7fb868660405161131e929190611d2b565b60405180910390a45050505050565b6001600160a01b0384163b156105395760405163f23a6e6160e01b81526001600160a01b0385169063f23a6e61906113719089908990889088908890600401611d59565b6020604051808303816000875af19250505080156113ac575060408051601f3d908101601f191682019092526113a991810190611d93565b60015b611415573d8080156113da576040519150601f19603f3d011682016040523d82523d6000602084013e6113df565b606091505b50805160000361140d57604051632bfa23e760e11b81526001600160a01b0386166004820152602401610523565b805160208201fd5b6001600160e01b0319811663f23a6e6160e01b1461102b57604051632bfa23e760e11b81526001600160a01b0386166004820152602401610523565b6001600160a01b0384163b156105395760405163bc197c8160e01b81526001600160a01b0385169063bc197c81906114959089908990889088908890600401611db0565b6020604051808303816000875af19250505080156114d0575060408051601f3d908101601f191682019092526114cd91810190611d93565b60015b6114fe573d8080156113da576040519150601f19603f3d011682016040523d82523d6000602084013e6113df565b6001600160e01b0319811663bc197c8160e01b1461102b57604051632bfa23e760e11b81526001600160a01b0386166004820152602401610523565b80356001600160a01b038116811461155157600080fd5b919050565b6000806040838503121561156957600080fd5b6115728361153a565b946020939093013593505050565b6001600160e01b031981168114610d4757600080fd5b6000602082840312156115a857600080fd5b81356115b381611580565b9392505050565b6000602082840312156115cc57600080fd5b5035919050565b60005b838110156115ee5781810151838201526020016115d6565b50506000910152565b6000815180845261160f8160208601602086016115d3565b601f01601f19169290920160200192915050565b6020815260006115b360208301846115f7565b634e487b7160e01b600052604160045260246000fd5b604051601f8201601f1916810167ffffffffffffffff8111828210171561167557611675611636565b604052919050565b600082601f83011261168e57600080fd5b813567ffffffffffffffff8111156116a8576116a8611636565b6116bb601f8201601f191660200161164c565b8181528460208386010111156116d057600080fd5b816020850160208301376000918101602001919091529392505050565b6000602082840312156116ff57600080fd5b813567ffffffffffffffff81111561171657600080fd5b6117228482850161167d565b949350505050565b600067ffffffffffffffff82111561174457611744611636565b5060051b60200190565b600082601f83011261175f57600080fd5b8135602061177461176f8361172a565b61164c565b82815260059290921b8401810191818101908684111561179357600080fd5b8286015b848110156117ae5780358352918301918301611797565b509695505050505050565b600080600080600060a086880312156117d157600080fd5b6117da8661153a565b94506117e86020870161153a565b9350604086013567ffffffffffffffff8082111561180557600080fd5b61181189838a0161174e565b9450606088013591508082111561182757600080fd5b61183389838a0161174e565b9350608088013591508082111561184957600080fd5b506118568882890161167d565b9150509295509295909350565b6000806040838503121561187657600080fd5b823591506118866020840161153a565b90509250929050565b600080604083850312156118a257600080fd5b50508035926020909101359150565b6000806000606084860312156118c657600080fd5b833567ffffffffffffffff8111156118dd57600080fd5b6118e98682870161167d565b9350506118f86020850161153a565b9150604084013590509250925092565b6000806040838503121561191b57600080fd5b823567ffffffffffffffff8082111561193357600080fd5b818501915085601f83011261194757600080fd5b8135602061195761176f8361172a565b82815260059290921b8401810191818101908984111561197657600080fd5b948201945b8386101561199b5761198c8661153a565b8252948201949082019061197b565b965050860135925050808211156119b157600080fd5b506119be8582860161174e565b9150509250929050565b600081518084526020808501945080840160005b838110156119f8578151875295820195908201906001016119dc565b509495945050505050565b6020815260006115b360208301846119c8565b60008060408385031215611a2957600080fd5b823567ffffffffffffffff80821115611a4157600080fd5b611a4d8683870161167d565b93506020850135915080821115611a6357600080fd5b506119be8582860161167d565b60008060408385031215611a8357600080fd5b611a8c8361153a565b915060208301358015158114611aa157600080fd5b809150509250929050565b60008060408385031215611abf57600080fd5b611ac88361153a565b91506118866020840161153a565b600080600080600060a08688031215611aee57600080fd5b611af78661153a565b9450611b056020870161153a565b93506040860135925060608601359150608086013567ffffffffffffffff811115611b2f57600080fd5b6118568882890161167d565b608081526000611b4e60808301876115f7565b8560208401528460408401528281036060840152611b6c81856115f7565b979650505050505050565b600181811c90821680611b8b57607f821691505b602082108103611bab57634e487b7160e01b600052602260045260246000fd5b50919050565b634e487b7160e01b600052601160045260246000fd5b8082018082111561042257610422611bb1565b60008251611bec8184602087016115d3565b9190910192915050565b634e487b7160e01b600052603260045260246000fd5b600060018201611c1e57611c1e611bb1565b5060010190565b601f82111561059f57600081815260208120601f850160051c81016020861015611c4c5750805b601f850160051c820191505b8181101561053957828155600101611c58565b815167ffffffffffffffff811115611c8557611c85611636565b611c9981611c938454611b77565b84611c25565b602080601f831160018114611cce5760008415611cb65750858301515b600019600386901b1c1916600185901b178555610539565b600085815260208120601f198616915b82811015611cfd57888601518255948401946001909101908401611cde565b5085821015611d1b5787850151600019600388901b60f8161c191681555b5050505050600190811b01905550565b604081526000611d3e60408301856119c8565b8281036020840152611d5081856119c8565b95945050505050565b6001600160a01b03868116825285166020820152604081018490526060810183905260a060808201819052600090611b6c908301846115f7565b600060208284031215611da557600080fd5b81516115b381611580565b6001600160a01b0386811682528516602082015260a060408201819052600090611ddc908301866119c8565b8281036060840152611dee81866119c8565b90508281036080840152611e0281856115f7565b9897505050505050505056fea26469706673582212209985ee07b7af96166949403aecb6a5ea6ea49b29de26303feee70cf34c06b9fd64736f6c63430008140033",
  "linkReferences": {},
  "deployedLinkReferences": {}
}